{
  "contractName": "Fcontracts",
  "abi": [
    {
      "constant": false,
      "inputs": [
        {
          "name": "fcontract",
          "type": "uint256"
        }
      ],
      "name": "updateFcontracts",
      "outputs": [],
      "payable": false,
      "stateMutability": "nonpayable",
      "type": "function"
    },
    {
      "constant": true,
      "inputs": [
        {
          "name": "addr",
          "type": "address"
        }
      ],
      "name": "getFcontracts",
      "outputs": [
        {
          "name": "",
          "type": "uint256"
        }
      ],
      "payable": false,
      "stateMutability": "view",
      "type": "function"
    }
  ],
  "bytecode": "0x608060405234801561001057600080fd5b50610199806100206000396000f30060806040526004361061004c576000357c0100000000000000000000000000000000000000000000000000000000900463ffffffff16806301b1414914610051578063526825af146100a8575b600080fd5b34801561005d57600080fd5b50610092600480360381019080803573ffffffffffffffffffffffffffffffffffffffff1690602001909291905050506100d5565b6040518082815260200191505060405180910390f35b3480156100b457600080fd5b506100d36004803603810190808035906020019092919050505061011d565b005b60008060008373ffffffffffffffffffffffffffffffffffffffff1673ffffffffffffffffffffffffffffffffffffffff168152602001908152602001600020549050919050565b80610127336100d5565b016000803373ffffffffffffffffffffffffffffffffffffffff1673ffffffffffffffffffffffffffffffffffffffff16815260200190815260200160002081905550505600a165627a7a723058209a5a942f796563fdeca43418e28082636b2c4cd6442f3c45f703ebe6c4d478ea0029",
  "source": "pragma solidity ^0.4.24;\n\ncontract Fcontracts {\n\n  mapping (address => uint) fcontracts;\n\n  function updateFcontracts(uint fcontract) public {\n    fcontracts[msg.sender] = getFcontracts(msg.sender) + fcontract;\n  }\n\n  function getFcontracts(address addr) public view returns(uint) {\n    return fcontracts[addr];\n  }\n\n}\n",
  "sourcePath": "/Users/quannguyen/home/first_contract/contracts/Fcontracts.sol",
  "compiler": {
    "name": "solc",
    "version": "0.4.24+commit.e67f0147.Emscripten.clang"
  },
  "schemaVersion": "2.0.1",
  "updatedAt": "2018-08-01T15:27:35.587Z"
}